{
  "abi": [
    {
      "inputs": [
        {
          "internalType": "address",
          "name": "_weth",
          "type": "address"
        },
        {
          "internalType": "uint256",
          "name": "_devFeeBP",
          "type": "uint256"
        },
        {
          "internalType": "uint256",
          "name": "_lockTime",
          "type": "uint256"
        },
        {
          "internalType": "uint256",
          "name": "_initalSupplyCap",
          "type": "uint256"
        },
        {
          "internalType": "uint256",
          "name": "_initialMintAmount",
          "type": "uint256"
        },
        {
          "internalType": "string",
          "name": "_name",
          "type": "string"
        },
        {
          "internalType": "string",
          "name": "_symbol",
          "type": "string"
        }
      ],
      "stateMutability": "nonpayable",
      "type": "constructor"
    },
    {
      "anonymous": false,
      "inputs": [
        {
          "indexed": false,
          "internalType": "uint256",
          "name": "",
          "type": "uint256"
        }
      ],
      "name": "A",
      "type": "event"
    },
    {
      "anonymous": false,
      "inputs": [
        {
          "indexed": true,
          "internalType": "address",
          "name": "owner",
          "type": "address"
        },
        {
          "indexed": true,
          "internalType": "address",
          "name": "spender",
          "type": "address"
        },
        {
          "indexed": true,
          "internalType": "uint256",
          "name": "id",
          "type": "uint256"
        }
      ],
      "name": "Approval",
      "type": "event"
    },
    {
      "anonymous": false,
      "inputs": [
        {
          "indexed": true,
          "internalType": "address",
          "name": "owner",
          "type": "address"
        },
        {
          "indexed": true,
          "internalType": "address",
          "name": "operator",
          "type": "address"
        },
        {
          "indexed": false,
          "internalType": "bool",
          "name": "approved",
          "type": "bool"
        }
      ],
      "name": "ApprovalForAll",
      "type": "event"
    },
    {
      "anonymous": false,
      "inputs": [
        {
          "indexed": true,
          "internalType": "address",
          "name": "previousOwner",
          "type": "address"
        },
        {
          "indexed": true,
          "internalType": "address",
          "name": "newOwner",
          "type": "address"
        }
      ],
      "name": "OwnershipTransferred",
      "type": "event"
    },
    {
      "anonymous": false,
      "inputs": [
        {
          "indexed": true,
          "internalType": "address",
          "name": "from",
          "type": "address"
        },
        {
          "indexed": true,
          "internalType": "address",
          "name": "to",
          "type": "address"
        },
        {
          "indexed": true,
          "internalType": "uint256",
          "name": "id",
          "type": "uint256"
        }
      ],
      "name": "Transfer",
      "type": "event"
    },
    {
      "inputs": [
        {
          "internalType": "address",
          "name": "spender",
          "type": "address"
        },
        {
          "internalType": "uint256",
          "name": "id",
          "type": "uint256"
        }
      ],
      "name": "approve",
      "outputs": [],
      "stateMutability": "nonpayable",
      "type": "function"
    },
    {
      "inputs": [
        {
          "internalType": "address",
          "name": "owner",
          "type": "address"
        }
      ],
      "name": "balanceOf",
      "outputs": [
        {
          "internalType": "uint256",
          "name": "",
          "type": "uint256"
        }
      ],
      "stateMutability": "view",
      "type": "function"
    },
    {
      "inputs": [],
      "name": "bundleWithdraw",
      "outputs": [],
      "stateMutability": "nonpayable",
      "type": "function"
    },
    {
      "inputs": [],
      "name": "claimDevFeeBPs",
      "outputs": [],
      "stateMutability": "nonpayable",
      "type": "function"
    },
    {
      "inputs": [],
      "name": "defaultPricePerUnit",
      "outputs": [
        {
          "internalType": "uint256",
          "name": "",
          "type": "uint256"
        }
      ],
      "stateMutability": "view",
      "type": "function"
    },
    {
      "inputs": [
        {
          "internalType": "uint256",
          "name": "",
          "type": "uint256"
        }
      ],
      "name": "deposits",
      "outputs": [
        {
          "internalType": "uint256",
          "name": "weight",
          "type": "uint256"
        },
        {
          "internalType": "uint256",
          "name": "tracker",
          "type": "uint256"
        }
      ],
      "stateMutability": "view",
      "type": "function"
    },
    {
      "inputs": [],
      "name": "devBalance",
      "outputs": [
        {
          "internalType": "uint256",
          "name": "",
          "type": "uint256"
        }
      ],
      "stateMutability": "view",
      "type": "function"
    },
    {
      "inputs": [
        {
          "internalType": "uint256",
          "name": "amount",
          "type": "uint256"
        }
      ],
      "name": "distributeYeild",
      "outputs": [],
      "stateMutability": "nonpayable",
      "type": "function"
    },
    {
      "inputs": [
        {
          "internalType": "uint256",
          "name": "",
          "type": "uint256"
        }
      ],
      "name": "getApproved",
      "outputs": [
        {
          "internalType": "address",
          "name": "",
          "type": "address"
        }
      ],
      "stateMutability": "view",
      "type": "function"
    },
    {
      "inputs": [
        {
          "internalType": "address",
          "name": "",
          "type": "address"
        },
        {
          "internalType": "address",
          "name": "",
          "type": "address"
        }
      ],
      "name": "isApprovedForAll",
      "outputs": [
        {
          "internalType": "bool",
          "name": "",
          "type": "bool"
        }
      ],
      "stateMutability": "view",
      "type": "function"
    },
    {
      "inputs": [
        {
          "internalType": "uint256",
          "name": "id",
          "type": "uint256"
        }
      ],
      "name": "lockUp",
      "outputs": [],
      "stateMutability": "nonpayable",
      "type": "function"
    },
    {
      "inputs": [],
      "name": "maxWhitelistMintPerTx",
      "outputs": [
        {
          "internalType": "uint256",
          "name": "",
          "type": "uint256"
        }
      ],
      "stateMutability": "view",
      "type": "function"
    },
    {
      "inputs": [
        {
          "internalType": "uint256",
          "name": "amount",
          "type": "uint256"
        }
      ],
      "name": "mintNewNft",
      "outputs": [
        {
          "internalType": "uint256[]",
          "name": "",
          "type": "uint256[]"
        }
      ],
      "stateMutability": "payable",
      "type": "function"
    },
    {
      "inputs": [],
      "name": "name",
      "outputs": [
        {
          "internalType": "string",
          "name": "",
          "type": "string"
        }
      ],
      "stateMutability": "view",
      "type": "function"
    },
    {
      "inputs": [],
      "name": "owner",
      "outputs": [
        {
          "internalType": "address",
          "name": "",
          "type": "address"
        }
      ],
      "stateMutability": "view",
      "type": "function"
    },
    {
      "inputs": [
        {
          "internalType": "uint256",
          "name": "id",
          "type": "uint256"
        }
      ],
      "name": "ownerOf",
      "outputs": [
        {
          "internalType": "address",
          "name": "owner",
          "type": "address"
        }
      ],
      "stateMutability": "view",
      "type": "function"
    },
    {
      "inputs": [
        {
          "internalType": "uint256",
          "name": "_count",
          "type": "uint256"
        }
      ],
      "name": "price",
      "outputs": [
        {
          "internalType": "uint256",
          "name": "",
          "type": "uint256"
        }
      ],
      "stateMutability": "view",
      "type": "function"
    },
    {
      "inputs": [],
      "name": "pricingVersionCount",
      "outputs": [
        {
          "internalType": "uint256",
          "name": "",
          "type": "uint256"
        }
      ],
      "stateMutability": "view",
      "type": "function"
    },
    {
      "inputs": [
        {
          "internalType": "uint256",
          "name": "",
          "type": "uint256"
        },
        {
          "internalType": "uint256",
          "name": "",
          "type": "uint256"
        }
      ],
      "name": "qtyPricing",
      "outputs": [
        {
          "internalType": "uint256",
          "name": "",
          "type": "uint256"
        }
      ],
      "stateMutability": "view",
      "type": "function"
    },
    {
      "inputs": [
        {
          "internalType": "address",
          "name": "operator",
          "type": "address"
        },
        {
          "internalType": "bool",
          "name": "approved",
          "type": "bool"
        }
      ],
      "name": "setApprovalForAll",
      "outputs": [],
      "stateMutability": "nonpayable",
      "type": "function"
    },
    {
      "inputs": [
        {
          "internalType": "uint256",
          "name": "_lockTime",
          "type": "uint256"
        }
      ],
      "name": "setLockTime",
      "outputs": [],
      "stateMutability": "nonpayable",
      "type": "function"
    },
    {
      "inputs": [
        {
          "internalType": "uint256",
          "name": "amount",
          "type": "uint256"
        }
      ],
      "name": "setMaxWhiteList",
      "outputs": [],
      "stateMutability": "nonpayable",
      "type": "function"
    },
    {
      "inputs": [
        {
          "internalType": "uint256",
          "name": "_defaultPricePerUnit",
          "type": "uint256"
        },
        {
          "internalType": "uint256[]",
          "name": "qty",
          "type": "uint256[]"
        },
        {
          "internalType": "uint256[]",
          "name": "prices",
          "type": "uint256[]"
        }
      ],
      "name": "setMintPrices",
      "outputs": [],
      "stateMutability": "nonpayable",
      "type": "function"
    },
    {
      "inputs": [
        {
          "internalType": "bool",
          "name": "open",
          "type": "bool"
        }
      ],
      "name": "setPublicMint",
      "outputs": [],
      "stateMutability": "nonpayable",
      "type": "function"
    },
    {
      "inputs": [
        {
          "internalType": "uint256",
          "name": "total",
          "type": "uint256"
        }
      ],
      "name": "setSupplyCap",
      "outputs": [],
      "stateMutability": "nonpayable",
      "type": "function"
    },
    {
      "inputs": [
        {
          "internalType": "bytes4",
          "name": "interfaceId",
          "type": "bytes4"
        }
      ],
      "name": "supportsInterface",
      "outputs": [
        {
          "internalType": "bool",
          "name": "",
          "type": "bool"
        }
      ],
      "stateMutability": "view",
      "type": "function"
    },
    {
      "inputs": [],
      "name": "symbol",
      "outputs": [
        {
          "internalType": "string",
          "name": "",
          "type": "string"
        }
      ],
      "stateMutability": "view",
      "type": "function"
    },
    {
      "inputs": [
        {
          "internalType": "uint256",
          "name": "id",
          "type": "uint256"
        }
      ],
      "name": "tokenURI",
      "outputs": [
        {
          "components": [
            {
              "internalType": "string",
              "name": "name",
              "type": "string"
            },
            {
              "internalType": "address",
              "name": "vaultAddress",
              "type": "address"
            },
            {
              "internalType": "uint256",
              "name": "withdrawable",
              "type": "uint256"
            },
            {
              "internalType": "uint256",
              "name": "id",
              "type": "uint256"
            },
            {
              "internalType": "uint256",
              "name": "vaultType",
              "type": "uint256"
            }
          ],
          "internalType": "struct RapPearsNft.MetaData",
          "name": "",
          "type": "tuple"
        }
      ],
      "stateMutability": "view",
      "type": "function"
    },
    {
      "inputs": [
        {
          "internalType": "address",
          "name": "",
          "type": "address"
        },
        {
          "internalType": "uint256",
          "name": "",
          "type": "uint256"
        }
      ],
      "name": "tokensByAddress",
      "outputs": [
        {
          "internalType": "uint256",
          "name": "",
          "type": "uint256"
        }
      ],
      "stateMutability": "view",
      "type": "function"
    },
    {
      "inputs": [],
      "name": "totalWeight",
      "outputs": [
        {
          "internalType": "uint256",
          "name": "",
          "type": "uint256"
        }
      ],
      "stateMutability": "view",
      "type": "function"
    },
    {
      "inputs": [
        {
          "internalType": "address",
          "name": "from",
          "type": "address"
        },
        {
          "internalType": "address",
          "name": "to",
          "type": "address"
        },
        {
          "internalType": "uint256",
          "name": "id",
          "type": "uint256"
        }
      ],
      "name": "transferFrom",
      "outputs": [],
      "stateMutability": "nonpayable",
      "type": "function"
    },
    {
      "inputs": [
        {
          "internalType": "address",
          "name": "newOwner",
          "type": "address"
        }
      ],
      "name": "transferOwnership",
      "outputs": [],
      "stateMutability": "nonpayable",
      "type": "function"
    },
    {
      "inputs": [],
      "name": "weth",
      "outputs": [
        {
          "internalType": "contract ERC20",
          "name": "",
          "type": "address"
        }
      ],
      "stateMutability": "view",
      "type": "function"
    },
    {
      "inputs": [
        {
          "internalType": "uint256",
          "name": "amount",
          "type": "uint256"
        },
        {
          "internalType": "uint256",
          "name": "whitelistNonce",
          "type": "uint256"
        },
        {
          "internalType": "bytes32",
          "name": "msgHash",
          "type": "bytes32"
        },
        {
          "internalType": "uint8",
          "name": "_v",
          "type": "uint8"
        },
        {
          "internalType": "bytes32",
          "name": "_r",
          "type": "bytes32"
        },
        {
          "internalType": "bytes32",
          "name": "_s",
          "type": "bytes32"
        }
      ],
      "name": "whitelistMint",
      "outputs": [
        {
          "internalType": "uint256[]",
          "name": "",
          "type": "uint256[]"
        }
      ],
      "stateMutability": "payable",
      "type": "function"
    },
    {
      "inputs": [
        {
          "internalType": "uint256",
          "name": "id",
          "type": "uint256"
        },
        {
          "internalType": "uint256",
          "name": "amount",
          "type": "uint256"
        }
      ],
      "name": "withdrawFromId",
      "outputs": [],
      "stateMutability": "nonpayable",
      "type": "function"
    },
    {
      "inputs": [
        {
          "internalType": "uint256",
          "name": "id",
          "type": "uint256"
        }
      ],
      "name": "withdrawableById",
      "outputs": [
        {
          "internalType": "uint256",
          "name": "claimId",
          "type": "uint256"
        }
      ],
      "stateMutability": "view",
      "type": "function"
    },
    {
      "inputs": [],
      "name": "yeildPerDeposit",
      "outputs": [
        {
          "internalType": "uint256",
          "name": "",
          "type": "uint256"
        }
      ],
      "stateMutability": "view",
      "type": "function"
    },
    {
      "inputs": [
        {
          "internalType": "uint256",
          "name": "id",
          "type": "uint256"
        }
      ],
      "name": "yieldPerId",
      "outputs": [
        {
          "internalType": "uint256",
          "name": "",
          "type": "uint256"
        }
      ],
      "stateMutability": "view",
      "type": "function"
    }
  ],
  "bytecode": {
    "object": "0x608060405267016345785d8a0000600e556001600f553480156200002257600080fd5b506040516200273a3803806200273a833981016040819052620000459162000455565b8151829082906200005e906000906020850190620002e2565b50805162000074906001906020840190620002e2565b5050506200008833620000e060201b60201c565b601580546001600160a01b0319166001600160a01b0389161790556016869055600b859055601284905560005b83811015620000d257620000c862000132565b50600101620000b5565b505050505050505062000593565b600680546001600160a01b038381166001600160a01b0319831681179093556040519116919082907f8be0079c531659141344cd1fd0a4f28419497f9722a3daafe3b4186f6b6457e090600090a35050565b60008060186000815462000146906200051e565b919050819055905060125460185411156200016057600080fd5b6200016c33826200017d565b62000178338262000290565b919050565b6001600160a01b038216620001cd5760405162461bcd60e51b81526020600482015260116024820152701253959053125117d49150d25412515395607a1b60448201526064015b60405180910390fd5b6000818152600260205260409020546001600160a01b031615620002255760405162461bcd60e51b815260206004820152600e60248201526d1053149150511657d3525395115160921b6044820152606401620001c4565b6001600160a01b038216600081815260036020908152604080832080546001019055848352600290915280822080546001600160a01b0319168417905551839291907fddf252ad1be2c89b69c2b068fc378daa952ba7f163c4a11628f55a4df523b3ef908290a45050565b6001600160a01b0382166000818152601360209081526040822080546001818101835582855292842001859055929091529054620002cf91906200053c565b6000918252601460205260409091205550565b828054620002f09062000556565b90600052602060002090601f0160209004810192826200031457600085556200035f565b82601f106200032f57805160ff19168380011785556200035f565b828001600101855582156200035f579182015b828111156200035f57825182559160200191906001019062000342565b506200036d92915062000371565b5090565b5b808211156200036d576000815560010162000372565b634e487b7160e01b600052604160045260246000fd5b600082601f830112620003b057600080fd5b81516001600160401b0380821115620003cd57620003cd62000388565b604051601f8301601f19908116603f01168101908282118183101715620003f857620003f862000388565b816040528381526020925086838588010111156200041557600080fd5b600091505b838210156200043957858201830151818301840152908201906200041a565b838211156200044b5760008385830101525b9695505050505050565b600080600080600080600060e0888a0312156200047157600080fd5b87516001600160a01b03811681146200048957600080fd5b602089015160408a015160608b015160808c015160a08d0151949b50929950909750955093506001600160401b0380821115620004c557600080fd5b620004d38b838c016200039e565b935060c08a0151915080821115620004ea57600080fd5b50620004f98a828b016200039e565b91505092959891949750929550565b634e487b7160e01b600052601160045260246000fd5b600060001982141562000535576200053562000508565b5060010190565b60008282101562000551576200055162000508565b500390565b600181811c908216806200056b57607f821691505b602082108114156200058d57634e487b7160e01b600052602260045260246000fd5b50919050565b61219780620005a36000396000f3fe6080604052600436106102255760003560e01c80637655a59011610123578063ba27d56f116100ab578063e329c7f11161006f578063e329c7f114610698578063e985e9c5146106ae578063eaaf1fca146106e9578063ed49032614610709578063f2fde38b1461071e57600080fd5b8063ba27d56f146105f5578063c87b56dd14610615578063cbd5380014610642578063cd9a1b6314610662578063db9f8c3b1461067857600080fd5b8063a22cb465116100f2578063a22cb46514610536578063a2d6b25f14610556578063ae04d45d1461056c578063b02c43d01461058c578063b6a3f59a146105d557600080fd5b80637655a590146104cb5780638da5cb5b146104eb57806395d89b411461050b57806396c82e571461052057600080fd5b806323b872dd116101b157806348dfeb271161017557806348dfeb27146104425780634b6d69d3146104585780636352211e1461046b5780636d43d9f11461048b57806370a08231146104ab57600080fd5b806323b872dd146103ad578063269748f8146103cd57806326a49e37146103ed5780633e73c83f1461040d5780633fc8cef31461042257600080fd5b806309093357116101f857806309093357146102f3578063095ea7b3146103135780630e2d56cf14610335578063174a9b74146103555780631ab2f6af1461038d57600080fd5b806301ffc9a71461022a57806305859eed1461025f57806306fdde0314610283578063081812fc146102a5575b600080fd5b34801561023657600080fd5b5061024a610245366004611c3d565b61073e565b60405190151581526020015b60405180910390f35b34801561026b57600080fd5b5061027560105481565b604051908152602001610256565b34801561028f57600080fd5b50610298610790565b6040516102569190611cb4565b3480156102b157600080fd5b506102db6102c0366004611cc7565b6004602052600090815260409020546001600160a01b031681565b6040516001600160a01b039091168152602001610256565b610306610301366004611ce0565b61081e565b6040516102569190611d39565b34801561031f57600080fd5b5061033361032e366004611d94565b610b04565b005b34801561034157600080fd5b50610333610350366004611dcc565b610be6565b34801561036157600080fd5b50610275610370366004611de9565b600d60209081526000928352604080842090915290825290205481565b34801561039957600080fd5b506102756103a8366004611cc7565b610c23565b3480156103b957600080fd5b506103336103c8366004611e0b565b610c89565b3480156103d957600080fd5b506103336103e8366004611ef8565b610cfb565b3480156103f957600080fd5b50610275610408366004611cc7565b610ea4565b34801561041957600080fd5b50610333610f00565b34801561042e57600080fd5b506015546102db906001600160a01b031681565b34801561044e57600080fd5b50610275600f5481565b610306610466366004611cc7565b610faa565b34801561047757600080fd5b506102db610486366004611cc7565b6110bb565b34801561049757600080fd5b506102756104a6366004611cc7565b611112565b3480156104b757600080fd5b506102756104c6366004611f65565b61111d565b3480156104d757600080fd5b506103336104e6366004611cc7565b611180565b3480156104f757600080fd5b506006546102db906001600160a01b031681565b34801561051757600080fd5b50610298611245565b34801561052c57600080fd5b5061027560095481565b34801561054257600080fd5b50610333610551366004611f80565b611252565b34801561056257600080fd5b5061027560085481565b34801561057857600080fd5b50610333610587366004611cc7565b6112be565b34801561059857600080fd5b506105c06105a7366004611cc7565b6007602052600090815260409020805460019091015482565b60408051928352602083019190915201610256565b3480156105e157600080fd5b506103336105f0366004611cc7565b6112ed565b34801561060157600080fd5b50610275610610366004611d94565b61131c565b34801561062157600080fd5b50610635610630366004611cc7565b61134d565b6040516102569190611fb7565b34801561064e57600080fd5b5061033361065d366004611cc7565b61144a565b34801561066e57600080fd5b5061027560175481565b34801561068457600080fd5b50610333610693366004611cc7565b611479565b3480156106a457600080fd5b50610275600e5481565b3480156106ba57600080fd5b5061024a6106c936600461200f565b600560209081526000928352604080842090915290825290205460ff1681565b3480156106f557600080fd5b50610333610704366004611de9565b6114a6565b34801561071557600080fd5b5061033361152f565b34801561072a57600080fd5b50610333610739366004611f65565b6115cf565b60006301ffc9a760e01b6001600160e01b03198316148061076f57506380ac58cd60e01b6001600160e01b03198316145b8061078a5750635b5e139f60e01b6001600160e01b03198316145b92915050565b6000805461079d90612042565b80601f01602080910402602001604051908101604052809291908181526020018280546107c990612042565b80156108165780601f106107eb57610100808354040283529160200191610816565b820191906000526020600020905b8154815290600101906020018083116107f957829003601f168201915b505050505081565b606061082987610ea4565b3410156108715760405162461bcd60e51b815260206004820152601160248201527056616c75652062656c6f7720707269636560781b60448201526064015b60405180910390fd5b6000868152600c6020908152604080832033845290915290205460ff16156108ce5760405162461bcd60e51b815260206004820152601060248201526f416c726561647920636c61696d65642160801b6044820152606401610868565b6040516bffffffffffffffffffffffff193360601b1660208201526034810188905260548101879052600090607401604051602081830303815290604052805190602001209050600060018760405160200161095691907f19457468657265756d205369676e6564204d6573736167653a0a3332000000008152601c810191909152603c0190565b60408051601f198184030181528282528051602091820120600084529083018083525260ff891690820152606081018790526080810186905260a0016020604051602081039080840390855afa1580156109b4573d6000803e3d6000fd5b5050506020604051035190508682146109fe5760405162461bcd60e51b815260206004820152600c60248201526b092dcecc2d8d2c840d0c2e6d60a31b6044820152606401610868565b6006546001600160a01b03828116911614610a4b5760405162461bcd60e51b815260206004820152600d60248201526c1058d8d95cdcc819195b9a5959609a1b6044820152606401610868565b6000888152600c602090815260408083203384529091529020805460ff19166001179055610a77611602565b60008967ffffffffffffffff811115610a9257610a92611e47565b604051908082528060200260200182016040528015610abb578160200160208202803683370190505b50905060005b8a811015610af657610ad16116d1565b828281518110610ae357610ae361207d565b6020908102919091010152600101610ac1565b509998505050505050505050565b6000818152600260205260409020546001600160a01b031633811480610b4d57506001600160a01b038116600090815260056020908152604080832033845290915290205460ff165b610b8a5760405162461bcd60e51b815260206004820152600e60248201526d1393d517d055551213d49256915160921b6044820152606401610868565b60008281526004602052604080822080546001600160a01b0319166001600160a01b0387811691821790925591518593918516917f8c5be1e5ebec7d5bd14f71427d1e84f3dd0314c0f7b2291e5b200ac8c7c3b92591a4505050565b6006546001600160a01b03163314610c105760405162461bcd60e51b815260040161086890612093565b6011805460ff1916911515919091179055565b600854600082815260076020526040812054909182916402540be40091610c49916120cc565b610c5391906120eb565b600084815260076020526040902060010154909150610c78906402540be400906120eb565b610c82908261210d565b9392505050565b6000818152600a60205260409020541580610cbf5750600b546000828152600a6020526040902054610cbc90429061210d565b10155b610cc857600080fd5b6000818152600a6020526040812055610ce18382611710565b610ceb82826117eb565b610cf683838361183b565b505050565b6006546001600160a01b03163314610d255760405162461bcd60e51b815260040161086890612093565b8051825114610d815760405162461bcd60e51b815260206004820152602260248201527f51747920696e707574207673207072696365206c656e677468206d69736d61746044820152610c6d60f31b6064820152608401610868565b600e839055600f8054600090610d9690612124565b909155506000805b8351811015610e3f57601054848281518110610dbc57610dbc61207d565b60200260200101511415610dcf57600191505b828181518110610de157610de161207d565b6020026020010151600d6000600f5481526020019081526020016000206000868481518110610e1257610e1261207d565b60200260200101518152602001908152602001600020819055508080610e3790612124565b915050610d9e565b5080610e9e5760405162461bcd60e51b815260206004820152602860248201527f70726963657320646f206e6f7420696e636c75646520746865206d6178206d696044820152676e7420707269636560c01b6064820152608401610868565b50505050565b600f546000908152600d60209081526040808320848452909152812054601054831115610eec5750600f546000908152600d6020908152604080832060105484529091529020545b80610ef65750600e545b610c8283826120cc565b6006546001600160a01b03163314610f2a5760405162461bcd60e51b815260040161086890612093565b60155460065460175460405163a9059cbb60e01b81526001600160a01b039283166004820152602481019190915291169063a9059cbb906044016020604051808303816000875af1158015610f83573d6000803e3d6000fd5b505050506040513d601f19601f82011682018060405250810190610fa7919061213f565b50565b606034610fb683610ea4565b1115610ff05760405162461bcd60e51b81526020600482015260096024820152681d5b99195c9c185a5960ba1b6044820152606401610868565b60115460ff1661102d5760405162461bcd60e51b81526020600482015260086024820152676e6f74206c69766560c01b6044820152606401610868565b611035611602565b60008267ffffffffffffffff81111561105057611050611e47565b604051908082528060200260200182016040528015611079578160200160208202803683370190505b50905060005b838110156110b45761108f6116d1565b8282815181106110a1576110a161207d565b602090810291909101015260010161107f565b5092915050565b6000818152600260205260409020546001600160a01b03168061110d5760405162461bcd60e51b815260206004820152600a6024820152691393d517d3525395115160b21b6044820152606401610868565b919050565b600061078a82610c23565b60006001600160a01b0382166111645760405162461bcd60e51b815260206004820152600c60248201526b5a45524f5f4144445245535360a01b6044820152606401610868565b506001600160a01b031660009081526003602052604090205490565b611189816110bb565b6001600160a01b0316336001600160a01b0316146111d55760405162461bcd60e51b81526020600482015260096024820152682737ba1027bbb732b960b91b6044820152606401610868565b6000818152600a6020908152604080832042905560079091529020606490819055600854611202916120cc565b6000828152600760205260408120600101805490919061122390849061215c565b9250508190555060646009600082825461123d919061215c565b909155505050565b6001805461079d90612042565b3360008181526005602090815260408083206001600160a01b03871680855290835292819020805460ff191686151590811790915590519081529192917f17307eab39ab6107e8899845ad3d59bd9653f200f220920489ca2b5937696c31910160405180910390a35050565b6006546001600160a01b031633146112e85760405162461bcd60e51b815260040161086890612093565b600b55565b6006546001600160a01b031633146113175760405162461bcd60e51b815260040161086890612093565b601255565b6013602052816000526040600020818154811061133857600080fd5b90600052602060002001600091509150505481565b6113886040518060a001604052806060815260200160006001600160a01b031681526020016000815260200160008152602001600081525090565b6040518060a00160405280600080546113a090612042565b80601f01602080910402602001604051908101604052809291908181526020018280546113cc90612042565b80156114195780601f106113ee57610100808354040283529160200191611419565b820191906000526020600020905b8154815290600101906020018083116113fc57829003601f168201915b505050918352505030602082015260400161143384611112565b815260200183815260200160008152509050919050565b6006546001600160a01b031633146114745760405162461bcd60e51b815260040161086890612093565b601055565b60095461148b6402540be400836120cc565b61149591906120eb565b6008600082825461123d919061215c565b600b546000838152600a60205260409020546114c2904261210d565b101580156114dd57506000828152600a602052604090205415155b6115125760405162461bcd60e51b8152600401610868906020808252600490820152636865726560e01b604082015260600190565b6000828152600a602052604081205561152b8183611a02565b5050565b33600090815260136020526040812054905b8181101561152b5733600090815260136020526040812080548390811061156a5761156a61207d565b90600052602060002001549050600b54600a60008381526020019081526020016000205442611599919061210d565b101580156115b457506000818152600a602052604090205415155b156115c6576115c68161070483611112565b50600101611541565b6006546001600160a01b031633146115f95760405162461bcd60e51b815260040161086890612093565b610fa781611ae0565b6015546040516000916001600160a01b03169034908381818185875af1925050503d806000811461164f576040519150601f19603f3d011682016040523d82523d6000602084013e611654565b606091505b505090508061166257600080fd5b60006127106016543461167591906120cc565b61167f91906120eb565b90508060176000828254611693919061215c565b9091555050600954156116ad5761152b610693823461210d565b6116b7813461210d565b601760008282546116c8919061215c565b90915550505050565b6000806018600081546116e390612124565b919050819055905060125460185411156116fc57600080fd5b6117063382611b32565b61110d33826117eb565b6000818152601460209081526040808320546001600160a01b03861684526013909252822080549192916117469060019061210d565b815481106117565761175661207d565b906000526020600020015490508060136000866001600160a01b03166001600160a01b03168152602001908152602001600020838154811061179a5761179a61207d565b60009182526020808320909101929092556001600160a01b03861681526013909152604090208054806117cf576117cf612174565b6001900381819060005260206000200160009055905550505050565b6001600160a01b0382166000818152601360209081526040822080546001818101835582855292842001859055929091529054611828919061210d565b6000918252601460205260409091205550565b6000818152600260205260409020546001600160a01b038481169116146118915760405162461bcd60e51b815260206004820152600a60248201526957524f4e475f46524f4d60b01b6044820152606401610868565b6001600160a01b0382166118db5760405162461bcd60e51b81526020600482015260116024820152701253959053125117d49150d25412515395607a1b6044820152606401610868565b336001600160a01b038416148061191557506001600160a01b038316600090815260056020908152604080832033845290915290205460ff165b8061193657506000818152600460205260409020546001600160a01b031633145b6119735760405162461bcd60e51b815260206004820152600e60248201526d1393d517d055551213d49256915160921b6044820152606401610868565b6001600160a01b0380841660008181526003602090815260408083208054600019019055938616808352848320805460010190558583526002825284832080546001600160a01b03199081168317909155600490925284832080549092169091559251849392917fddf252ad1be2c89b69c2b068fc378daa952ba7f163c4a11628f55a4df523b3ef91a4505050565b611a0b816110bb565b6001600160a01b0316336001600160a01b0316148015611a335750611a2f81611112565b8211155b611a3c57600080fd5b60008181526007602052604081208181556001018190556009805460649290611a6690849061210d565b909155505060155460405163a9059cbb60e01b8152336004820152602481018490526001600160a01b039091169063a9059cbb906044016020604051808303816000875af1158015611abc573d6000803e3d6000fd5b505050506040513d601f19601f82011682018060405250810190610cf6919061213f565b600680546001600160a01b038381166001600160a01b0319831681179093556040519116919082907f8be0079c531659141344cd1fd0a4f28419497f9722a3daafe3b4186f6b6457e090600090a35050565b6001600160a01b038216611b7c5760405162461bcd60e51b81526020600482015260116024820152701253959053125117d49150d25412515395607a1b6044820152606401610868565b6000818152600260205260409020546001600160a01b031615611bd25760405162461bcd60e51b815260206004820152600e60248201526d1053149150511657d3525395115160921b6044820152606401610868565b6001600160a01b038216600081815260036020908152604080832080546001019055848352600290915280822080546001600160a01b0319168417905551839291907fddf252ad1be2c89b69c2b068fc378daa952ba7f163c4a11628f55a4df523b3ef908290a45050565b600060208284031215611c4f57600080fd5b81356001600160e01b031981168114610c8257600080fd5b6000815180845260005b81811015611c8d57602081850181015186830182015201611c71565b81811115611c9f576000602083870101525b50601f01601f19169290920160200192915050565b602081526000610c826020830184611c67565b600060208284031215611cd957600080fd5b5035919050565b60008060008060008060c08789031215611cf957600080fd5b863595506020870135945060408701359350606087013560ff81168114611d1f57600080fd5b9598949750929560808101359460a0909101359350915050565b6020808252825182820181905260009190848201906040850190845b81811015611d7157835183529284019291840191600101611d55565b50909695505050505050565b80356001600160a01b038116811461110d57600080fd5b60008060408385031215611da757600080fd5b611db083611d7d565b946020939093013593505050565b8015158114610fa757600080fd5b600060208284031215611dde57600080fd5b8135610c8281611dbe565b60008060408385031215611dfc57600080fd5b50508035926020909101359150565b600080600060608486031215611e2057600080fd5b611e2984611d7d565b9250611e3760208501611d7d565b9150604084013590509250925092565b634e487b7160e01b600052604160045260246000fd5b600082601f830112611e6e57600080fd5b8135602067ffffffffffffffff80831115611e8b57611e8b611e47565b8260051b604051601f19603f83011681018181108482111715611eb057611eb0611e47565b604052938452858101830193838101925087851115611ece57600080fd5b83870191505b84821015611eed57813583529183019190830190611ed4565b979650505050505050565b600080600060608486031215611f0d57600080fd5b83359250602084013567ffffffffffffffff80821115611f2c57600080fd5b611f3887838801611e5d565b93506040860135915080821115611f4e57600080fd5b50611f5b86828701611e5d565b9150509250925092565b600060208284031215611f7757600080fd5b610c8282611d7d565b60008060408385031215611f9357600080fd5b611f9c83611d7d565b91506020830135611fac81611dbe565b809150509250929050565b602081526000825160a06020840152611fd360c0840182611c67565b905060018060a01b0360208501511660408401526040840151606084015260608401516080840152608084015160a08401528091505092915050565b6000806040838503121561202257600080fd5b61202b83611d7d565b915061203960208401611d7d565b90509250929050565b600181811c9082168061205657607f821691505b6020821081141561207757634e487b7160e01b600052602260045260246000fd5b50919050565b634e487b7160e01b600052603260045260246000fd5b6020808252600990820152682727aa2fa7aba722a960b91b604082015260600190565b634e487b7160e01b600052601160045260246000fd5b60008160001904831182151516156120e6576120e66120b6565b500290565b60008261210857634e487b7160e01b600052601260045260246000fd5b500490565b60008282101561211f5761211f6120b6565b500390565b6000600019821415612138576121386120b6565b5060010190565b60006020828403121561215157600080fd5b8151610c8281611dbe565b6000821982111561216f5761216f6120b6565b500190565b634e487b7160e01b600052603160045260246000fdfea164736f6c634300080a000a",
    "linkReferences": {}
  }
}