{
  "abi": [
    {
      "inputs": [
        {
          "internalType": "address",
          "name": "_nft",
          "type": "address"
        }
      ],
      "stateMutability": "nonpayable",
      "type": "constructor"
    },
    {
      "inputs": [
        {
          "internalType": "address",
          "name": "who",
          "type": "address"
        },
        {
          "internalType": "uint256",
          "name": "amount",
          "type": "uint256"
        }
      ],
      "name": "payForNft",
      "outputs": [],
      "stateMutability": "payable",
      "type": "function"
    }
  ],
  "bytecode": {
    "object": "0x608060405234801561001057600080fd5b5060405161033a38038061033a83398101604081905261002f91610054565b600080546001600160a01b0319166001600160a01b0392909216919091179055610084565b60006020828403121561006657600080fd5b81516001600160a01b038116811461007d57600080fd5b9392505050565b6102a7806100936000396000f3fe60806040526004361061001e5760003560e01c80633d45e03b14610023575b600080fd5b610036610031366004610178565b610038565b005b60008054604051634b6d69d360e01b8152600481018490526001600160a01b0390911690634b6d69d390349060240160006040518083038185885af1158015610085573d6000803e3d6000fd5b50505050506040513d6000823e601f3d908101601f191682016040526100ae91908101906101c6565b805190915060005b818110156101715760008054906101000a90046001600160a01b03166001600160a01b03166323b872dd30878685815181106100f4576100f4610284565b60209081029190910101516040516001600160e01b031960e086901b1681526001600160a01b0393841660048201529290911660248301526044820152606401600060405180830381600087803b15801561014e57600080fd5b505af1158015610162573d6000803e3d6000fd5b505050508060010190506100b6565b5050505050565b6000806040838503121561018b57600080fd5b82356001600160a01b03811681146101a257600080fd5b946020939093013593505050565b634e487b7160e01b600052604160045260246000fd5b600060208083850312156101d957600080fd5b825167ffffffffffffffff808211156101f157600080fd5b818501915085601f83011261020557600080fd5b815181811115610217576102176101b0565b8060051b604051601f19603f8301168101818110858211171561023c5761023c6101b0565b60405291825284820192508381018501918883111561025a57600080fd5b938501935b828510156102785784518452938501939285019261025f565b98975050505050505050565b634e487b7160e01b600052603260045260246000fdfea164736f6c634300080a000a",
    "linkReferences": {}
  }
}