{
  "abi": [
    {
      "inputs": [
        {
          "internalType": "address",
          "name": "_nft",
          "type": "address"
        }
      ],
      "stateMutability": "nonpayable",
      "type": "constructor"
    },
    {
      "anonymous": false,
      "inputs": [
        {
          "indexed": true,
          "internalType": "address",
          "name": "previousOwner",
          "type": "address"
        },
        {
          "indexed": true,
          "internalType": "address",
          "name": "newOwner",
          "type": "address"
        }
      ],
      "name": "OwnershipTransferred",
      "type": "event"
    },
    {
      "inputs": [],
      "name": "owner",
      "outputs": [
        {
          "internalType": "address",
          "name": "",
          "type": "address"
        }
      ],
      "stateMutability": "view",
      "type": "function"
    },
    {
      "inputs": [
        {
          "internalType": "uint256",
          "name": "amount",
          "type": "uint256"
        }
      ],
      "name": "payForNft",
      "outputs": [],
      "stateMutability": "payable",
      "type": "function"
    },
    {
      "inputs": [
        {
          "internalType": "address",
          "name": "who",
          "type": "address"
        },
        {
          "internalType": "uint256",
          "name": "id",
          "type": "uint256"
        }
      ],
      "name": "transferOut",
      "outputs": [],
      "stateMutability": "nonpayable",
      "type": "function"
    },
    {
      "inputs": [
        {
          "internalType": "address",
          "name": "newOwner",
          "type": "address"
        }
      ],
      "name": "transferOwnership",
      "outputs": [],
      "stateMutability": "nonpayable",
      "type": "function"
    }
  ],
  "bytecode": {
    "object": "0x608060405234801561001057600080fd5b506040516104f93803806104f983398101604081905261002f916100ad565b6100383361005d565b600180546001600160a01b0319166001600160a01b03929092169190911790556100dd565b600080546001600160a01b038381166001600160a01b0319831681178455604051919092169283917f8be0079c531659141344cd1fd0a4f28419497f9722a3daafe3b4186f6b6457e09190a35050565b6000602082840312156100bf57600080fd5b81516001600160a01b03811681146100d657600080fd5b9392505050565b61040d806100ec6000396000f3fe60806040526004361061003f5760003560e01c8063633f7c351461004457806376890c58146100595780638da5cb5b14610079578063f2fde38b146100b5575b600080fd5b6100576100523660046102ab565b6100d5565b005b34801561006557600080fd5b506100576100743660046102e0565b61014e565b34801561008557600080fd5b50600054610099906001600160a01b031681565b6040516001600160a01b03909116815260200160405180910390f35b3480156100c157600080fd5b506100576100d036600461030a565b610209565b600154604051634b6d69d360e01b8152600481018390526001600160a01b0390911690634b6d69d390349060240160006040518083038185885af1158015610121573d6000803e3d6000fd5b50505050506040513d6000823e601f3d908101601f1916820160405261014a9190810190610342565b5050565b6000546001600160a01b031633146101995760405162461bcd60e51b81526020600482015260096024820152682727aa2fa7aba722a960b91b60448201526064015b60405180910390fd5b6001546040516323b872dd60e01b81523060048201526001600160a01b03848116602483015260448201849052909116906323b872dd90606401600060405180830381600087803b1580156101ed57600080fd5b505af1158015610201573d6000803e3d6000fd5b505050505050565b6000546001600160a01b0316331461024f5760405162461bcd60e51b81526020600482015260096024820152682727aa2fa7aba722a960b91b6044820152606401610190565b6102588161025b565b50565b600080546001600160a01b038381166001600160a01b0319831681178455604051919092169283917f8be0079c531659141344cd1fd0a4f28419497f9722a3daafe3b4186f6b6457e09190a35050565b6000602082840312156102bd57600080fd5b5035919050565b80356001600160a01b03811681146102db57600080fd5b919050565b600080604083850312156102f357600080fd5b6102fc836102c4565b946020939093013593505050565b60006020828403121561031c57600080fd5b610325826102c4565b9392505050565b634e487b7160e01b600052604160045260246000fd5b6000602080838503121561035557600080fd5b825167ffffffffffffffff8082111561036d57600080fd5b818501915085601f83011261038157600080fd5b8151818111156103935761039361032c565b8060051b604051601f19603f830116810181811085821117156103b8576103b861032c565b6040529182528482019250838101850191888311156103d657600080fd5b938501935b828510156103f4578451845293850193928501926103db565b9897505050505050505056fea164736f6c634300080a000a",
    "linkReferences": {}
  }
}